:1000000080314A28FF34FF347E1480310B1F0928C9
:100010000A2848282100911E0E280F281B2820009E
:10002000911E132814281B28220065088A006408E2
:100030000A00803148282100111E1F2820282C2862
:100040002000111E242825282C28220067088A0059
:1000500066080A00803148282100111C3028312808
:100060003A282000111C352836283A28A0312620AD
:10007000803148282100141E3E283F2848282000AF
:10008000141E432844284828A0313D2080314828A8
:100090007E10090080314C280130840088308500B2
:1000A00078308600253087000030FF00F830AF310F
:1000B000412780312100803102208031DC008031F5
:1000C00003208031DD0090308400A4308500A03012
:1000D0008600023087000030FF004030AF314127FA
:1000E000803150308400A4308500203086000430F8
:1000F00087000030FF004030AF3141278031703041
:100100008400263085008030FE000130FF00AF31D2
:1001100035278031F801F901FA01A0308400003060
:1001200085003430FE000030FF00AF3135278031CC
:1001300020308400013085004F30FE000030FF0089
:10014000AF3135278031A0308400013085004E303A
:10015000FE000030FF00AF313527803120308400B1
:10016000023085004D30FE000030FF00AF313527F2
:1001700080312500E001E101E201E301E401E50154
:10018000E601E70120308400033085004830FE009E
:100190000030FF00AF3135278031A03084000330BC
:1001A00085004030FE000030FF00AF313527803140
:1001B000A0308400043085003230FE000030FF00A3
:1001C000AF31352780317E10200099315C29210024
:1001D0004B03031DEC28ED28512ACB0122003F08D8
:1001E0002000B90022003E082000B8002C30BA00E0
:1001F000923172228031200039082900DD00200070
:1002000038082900DC0003302000A6000030A700D9
:1002100029005D082000A90029005C082000A80032
:10022000AE31FD268031023029005D020030031915
:100230005C02031C1C291D2952295C08003E200079
:10024000A000FE3029005D3D2000A100A201A30115
:100250000030A7000030A6000430A500AB30A40099
:10026000A231F3228031200020082100D400200098
:1002700021082100D500200022082100D6002000FE
:1002800023082100D7000930D736D60CD50CD40C62
:10029000890B442955082200B5002100540822008A
:1002A000B400952900302100D4000230D500290087
:1002B0005C08210054022000A00029005D082100F4
:1002C000553B2000A100A201A3010030A70000308F
:1002D000A6000430A500AB30A400A231F322803187
:1002E000200020082100D600200021082100D7008E
:1002F000200022082100D800200023082100D90076
:100300000930D936D80CD70CD60C890B812956095F
:10031000DA005709DB00DA0A0319DB0A5A0822005F
:10032000B40021005B082200B50023004908290021
:10033000D700230048082900D60044302000B3002D
:100340007A30B2000030B1000030B0002900560809
:100350002000A200290057082000A300A401A50145
:1003600000309A318822803120002508B700240807
:10037000B6002308B5002208B4008A3191228031EA
:10038000200033082900D500200032082900D400BD
:10039000200031082900D300200030082900D200B5
:1003A00055082000B300290054082000B20029009D
:1003B00053082000B100290052082000B00022009C
:1003C00034082000A200220035082000A300890D77
:1003D000893B8909A400A50001309A318822803127
:1003E00020002508B7002408B6002308B50022081D
:1003F000B4008531C2258031200033082900DB009C
:10040000200032082900DA00200031082900D90034
:10041000200030082900D8003F302000A300003021
:10042000A2000030A1000030A00029005B082000DD
:10043000A70029005A082000A6002900590820001A
:10044000A500290058082000A4008D31F525803131
:10045000200023082900DB00200022082900DA0000
:10046000200021082900D900200020082900D800F8
:1004700002302000A6000030A70029005B08F6002B
:100480005A08F5005908F4005808F300A631A926C7
:10049000803174082000A9007308A800AE31FD2641
:1004A000803121004C03031D562A572AC12DAB2D44
:1004B000220041082000B900220040082000B800B6
:1004C0003830BA0092317222803120003908290078
:1004D000E900200038082900E80007302000A600C5
:1004E0000030A700290069082000A9002900680839
:1004F0002000A800AE31FD268031290069082000C7
:10050000CB00290068082000CA00953110258031F1
:1005100020004B082200B70020004A082200B60045
:1005200023004B082900E70023004A082900E600C1
:1005300044302000B3007A30B2000030B100003007
:10054000B000290066082000A200290067082000EA
:10055000A300A401A50100309A3188228031200037
:100560002508B7002408B6002308B5002208B40007
:100570008A3191228031200033082900E1002000D7
:1005800032082900E000200031082900DF002000A7
:1005900030082900DE0061082000B300290060084F
:1005A0002000B20029005F082000B10029005E0889
:1005B0002000B000220036082000A20022003708E8
:1005C0002000A300890D893B8909A400A500013002
:1005D0009A318822803120002508B7002408B6000F
:1005E0002308B5002208B4008531C22580312000DF
:1005F00033082900E500200032082900E40020002B
:1006000031082900E300200030082900E20004300E
:100610002000A6000030A70029006508F600640845
:10062000F5006308F4006208F300A631A9268031C2
:1006300074082000A9007308A800AE31FD2680319F
:100640002100CA01CA0AC12D220043082000B900B6
:10065000220042082000B8004430BA0092317222D1
:100660008031200039082900E900200038082900DD
:10067000E80008302000A6000030A7002900690823
:100680002000A900290068082000A800AE31FD263E
:100690008031290069082000CB002900680820006B
:1006A000CA0095311025803120004B082200B90086
:1006B00020004A082200B80023004D082900E70066
:1006C00023004C082900E60044302000B3007A30B3
:1006D000B2000030B1000030B000290066082000F0
:1006E000A200290067082000A300A401A501003092
:1006F0009A318822803120002508B7002408B600EE
:100700002308B5002208B4008A31912280312000EC
:1007100033082900E100200032082900E000200011
:1007200031082900DF00200030082900DE006108C0
:100730002000B300290060082000B20029005F08F3
:100740002000B10029005E082000B0002200380817
:100750002000A200220039082000A300890D893B57
:100760008909A400A50001309A3188228031200037
:100770002508B7002408B6002308B5002208B400F5
:100780008531C2258031200033082900E500200092
:1007900032082900E400200031082900E30020008D
:1007A00030082900E20005302000A6000030A70034
:1007B00029006508F6006408F5006308F400620883
:1007C000F300A631A926803174082000A90073081F
:1007D000A800AE31FD26803102302100CA00C12DB3
:1007E000220045082000B900220044082000B8007B
:1007F0005030BA009231722280312000390829002D
:10080000E900200038082900E80009302000A6008F
:100810000030A700290069082000A9002900680805
:100820002000A800AE31FD26803129006908200093
:10083000CB00290068082000CA0096318826803144
:1008400020004B082200BB0020004A082200BA000A
:1008500023004F082900E70023004E082900E60086
:1008600044302000B3007A30B2000030B1000030D4
:10087000B000290066082000A200290067082000B7
:10088000A300A401A50100309A3188228031200004
:100890002508B7002408B6002308B5002208B400D4
:1008A0008A3191228031200033082900E1002000A4
:1008B00032082900E000200031082900DF00200074
:1008C00030082900DE0061082000B300290060081C
:1008D0002000B20029005F082000B10029005E0856
:1008E0002000B00022003A082000A20022003B08AD
:1008F0002000A300890D893B8909A400A5000130CF
:100900009A318822803120002508B7002408B600DB
:100910002308B5002208B4008531C22580312000AB
:1009200033082900E500200032082900E4002000F7
:1009300031082900E300200030082900E2000630D9
:100940002000A6000030A70029006508F600640812
:10095000F5006308F4006208F300A631A92680318F
:1009600074082000A9007308A800AE31FD2680316C
:1009700003302100CA00C12D220047082000B90021
:10098000220046082000B8005C30BA009231722282
:100990008031200039082900E900200038082900AA
:1009A000E8000B302000A6000030A70029006908ED
:1009B0002000A900290068082000A800AE31FD260B
:1009C0008031290068082000A00029006908200063
:1009D000A100A201A3010030A7000030A600013051
:1009E000A5003830A400A231F32280312000200875
:1009F0002100D400200021082100D5002000220879
:100A00002100D600200023082100D7000A30D73665
:100A1000D60CD50CD40C890B072D55082200BD002F
:100A2000210054082200BC000330BC070030BD3D4B
:100A3000230051082900E700230050082900E600A0
:100A400044302000B3007A30B2000030B1000030F2
:100A5000B000290066082000A200290067082000D5
:100A6000A300A401A50100309A3188228031200022
:100A70002508B7002408B6002308B5002208B400F2
:100A80008A3191228031200033082900E1002000C2
:100A900032082900E000200031082900DF00200092
:100AA00030082900DE0061082000B300290060083A
:100AB0002000B20029005F082000B10029005E0874
:100AC0002000B00022003C082000A20022003D08C7
:100AD0002000A300890D893B8909A400A5000130ED
:100AE0009A318822803120002508B7002408B600FA
:100AF0002308B5002208B4008531C22580312000CA
:100B000033082900E500200032082900E400200015
:100B100031082900E300200030082900E2000A30F3
:100B20002000A6000030A70029006508F600640830
:100B3000F5006308F4006208F300A631A9268031AD
:100B400074082000A9007308A800AE31FD2680318A
:100B50002100CA01C12D4A08D400D5015508003A28
:100B60000319B32DA82D5408003A0319582A013A45
:100B70000319242B033A0319F02B013A0319BC2C57
:100B8000A82D0800200033088039BD003335C3008C
:100B9000B21FCB2DCC2DCD2D431443080319D12DDD
:100BA000D22DE12D430A031DD62DD72DDF2D003088
:100BB000B3000030B2000030B1000030B000B21716
:100BC000E92D0030B3000030B2000030B100003039
:100BD000B00037088039B8003808BD063735BE0088
:100BE000B61FF32DF42DF52D3E143E080319F92DF3
:100BF000FA2D092E3E0A031DFE2DFF2D072E003073
:100C0000B7000030B6000030B5000030B400B617B1
:100C1000112E0030B7000030B6000030B5000030B3
:100C2000B4003E080319152E162E1B2E4308031D73
:100C30001A2E1B2E242E0030B3000030B2000030DC
:100C4000B1000030B000FC2F3008F3003608A131AD
:100C5000D621853174082000C9007308C8004808EF
:100C6000B800B901BA01BB013B08C2003A08C10093
:100C70003908C0003808BF004908B800B901BA01F6
:100C8000BB013B08C7003A08C6003908C500380850
:100C9000C4003108F3003508A131D621853174082C
:100CA0002000C9007308C8004808B800B901BA019B
:100CB000BB013808BF073908C03D3A08C13D3B08B1
:100CC000C23D4908B800B901BA01BB013808C407E0
:100CD0003908C53D3A08C63D3B08C73D3208F30018
:100CE0003408A131D621853174082000C900730869
:100CF000C8004808B800B901BA01BB013808BF07ED
:100D00003908C03D3A08C13D3B08C23D4908B8001A
:100D1000B901BA01BB013808C4073908C53D3A0812
:100D2000C63D3B08C73D0830BF35C00DC10DC20DE3
:100D3000890B942E3108F3003408A131D621853176
:100D400074082000C9007308C8004808BF07490894
:100D5000C03D0030C13DC23D3008F3003508A1312F
:100D6000D621853174082000C9007308C8004808DE
:100D7000BF074908C03D0030C13DC23D0830BF3506
:100D8000C00DC10DC20D890BBF2E3008F300340811
:100D9000A131D621853174082000C9007308C8002C
:100DA0004808BF074908C03D0030C13DC23D310879
:100DB000F3003608A131D621853174082000C9001E
:100DC0007308C8004808C4074908C53D0030C63D3F
:100DD000C73D3208F3003508A131D62185317408AA
:100DE0002000C9007308C8004808C4074908C53D69
:100DF0000030C63DC73D3208F3003608A131D62188
:100E0000853174082000C9007308C8004808B8007C
:100E10004908B900BA01BB010830B835B90DBA0D9F
:100E2000BB0D890B0D2F3808C4073908C53D3A089A
:100E3000C63D3B08C73D3F08B8004008B90041081F
:100E4000BA004208BB001830BB36BA0CB90CB80C5B
:100E5000890B242F3808C4073908C53D3A08C63D18
:100E60003B08C73D0830BF35C00DC10DC20D890B11
:100E7000332F43083E07B800B901B90D3808823E48
:100E8000C800FF30393DC9005C2F0130C435C50DA5
:100E9000C60DC70D890B462FC21F4F2F502F512F44
:100EA00044140130BF35C00DC10DC20D890B522F46
:100EB000FF30C807FF30C93DC61F5F2F602F452F89
:100EC000BE01C21F642F652F812FFF303F05B80080
:100ED000FF304005B900FF304105BA007F304205C0
:100EE000BB003B083A04390438040319782F792FE2
:100EF0007C2FBE01BE0A812F441C7F2F802F812FA3
:100F0000792F3E080319852F862FAE2F0130C40795
:100F10000030C53D0030C63D0030C73D471C912F15
:100F2000922FAE2F4408B8004508B9004608BA0011
:100F30004708BB000130BC00BB37BA0CB90CB80C79
:100F4000BC0B9C2F3B08C7003A08C6003908C500F7
:100F50003808C4000130C8070030C93D4908803A4C
:100F6000B80080303802031DB72FFF304802031C41
:100F7000BA2FBB2FC52F7F302000C7008030C6009E
:100F80000030C5000030C400F02F20004908803A2E
:100F9000B80080303802031DCF2F013048020318FB
:100FA000D22FD32FDE2F00302000C7000030C60024
:100FB0000030C5000030C400BD01F02F20004808FB
:100FC000C300FF30C405FF30C5057F30C6050030C3
:100FD000C705431CEC2FED2FEE2FC6174336C70075
:100FE0003D08B8003808C7044708B3004608B200F7
:100FF0004508B1004408B000080021005C08080062
:101000000800E534023432340034AE34023464343F
:10101000003475340234963400343A340234C8341F
:10102000003400340234FA340034C83401342C342F
:101030000134933401345E34013462340134903429
:10104000013435340134C23401340D340134F43404
:101050000134E934003426340234CA3400345834BC
:101060000234AF3400348A34023497340034BC3450
:10107000023483340034EE340234723400342034C9
:10108000033463340034523403345634003484342B
:1010900003344B340034B634033441340034E83480
:1010A0000334393400341A340434323400344C34C8
:1010B00004342C3400347E34043427340034B03407
:1010C000043423340034E23404341F340034143440
:1010D00005341B3400344634053418340034783475
:1010E000053416340034AA34053413340034DC34A7
:1010F0000534113400340E340634103400344034D6
:1011000006340E340034723406340D340034A43402
:1011100006340C340034D63406340A34003408342F
:1011200007340A3400343A340734E33402343234B6
:101130000034AC34023464340034743402349634F1
:1011400000343A340234C834003400340234FA34FF
:101150000034C83401342C340134943401345E3406
:101160000134633401349034013437340134C234EF
:1011700001340F340134F4340134EB3400342634B8
:101180000234CC34003458340234B13400348A345C
:1011900002349A340034BC34023485340034EE34E2
:1011A000023474340034203403346534003452344F
:1011B000033458340034843403344D340034B634AA
:1011C000033443340034E83403343B3400341A34F9
:1011D0000434343400344C3404342E3400347E343B
:1011E000043428340034B034043424340034E23479
:1011F0000434F700F601F60A7708031D00290129D7
:10120000142903307402E930031973020318092901
:101210000A29132900307402643003197302031879
:10122000122913291429F60102307706031D192902
:101230001A292D2904307402E330031973020318AC
:10124000222923292C2900307402C8300319730283
:1012500003182B292C292D29F60103307706031DAD
:1012600032293329462904307402E330031973020A
:1012700003183B293C29452900307402C830031962
:1012800073020318442945294629F60104307706DC
:10129000031D4B294C295F2904307402E3300319E4
:1012A00073020318542955295E2900307402C8308E
:1012B0000319730203185D295E295F29F6010530C1
:1012C0007706031D642965296F29013074023C30BB
:1012D00003197302031C6D296E296F29F601770328
:1012E000031D7329742987290130740237300319CB
:1012F000730203187C297D2986290030740273301B
:10130000031973020318852986298729F6010630F7
:101310007706031D8C298D2997290030740202302D
:1013200003197302031C952996299729F6010730A2
:101330007706031D9C299D29A729003074020330DC
:1013400003197302031CA529A629A729F601083051
:101350007706031DAC29AD29C02907307402D130AE
:10136000031973020318B529B629BF290130740285
:10137000F430031973020318BE29BF29C029F601EE
:1013800009307706031DC529C629D92907307402FB
:10139000D130031973020318CE29CF29D82901307F
:1013A0007402F430031973020318D729D829D929F4
:1013B000F6010A307706031DDE29DF29F2290730FE
:1013C0007402D130031973020318E729E829F129BF
:1013D00001307402F430031973020318F029F12963
:1013E000F229F6010B307706031DF729F8290B2A9D
:1013F00007307402D130031973020318002A012A3E
:101400000A2A01307402F430031973020318092AFE
:101410000A2A0B2AF6010C307706031D102A112A1E
:101420002C2A7408803AF50081307502031D1A2AAF
:10143000F530730203181D2A1E2A2B2A7408803ADD
:10144000F5007E307502031D272A0C307302031845
:101450002A2A2B2A2C2AF6010D307706031D312A61
:10146000322A4D2A7408803AF50081307502031D36
:101470003B2AF530730203183E2A3F2A4C2A74088F
:10148000803AF5007E307502031D482A0C30730245
:1014900003184B2A4C2A4D2AF6010E307706031DFD
:1014A000522A532A6E2A7408803AF5008130750258
:1014B000031D5C2AF530730203185F2A602A6D2A27
:1014C0007408803AF5007E307502031D692A0C30DD
:1014D000730203186C2A6D2A6E2AF6010F30770604
:1014E000031D732A742A8F2A7408803AF50081300C
:1014F0007502031D7D2AF53073020318802A812AA4
:101500008E2A7408803AF5007E307502031D8A2AFF
:101510000C30730203188D2A8E2A8F2AF601760862
:101520000800200037088039C1003735C800B61FD1
:101530009A2A9B2A9C2A481448080319A02AA12AFF
:10154000B12A480A031DA52AA62AAE2A0030B700F0
:101550000030B6000030B5000030B400B617B70157
:10156000B92A0030B7000030B6000030B5000030B6
:10157000B40033088039B8003808C1063335C900D3
:10158000B21FC32AC42AC52A491449080319C92A03
:10159000CA2ADA2A490A031DCE2ACF2AD72A0030BE
:1015A000B3000030B2000030B1000030B000B2171C
:1015B000B301E22A0030B3000030B2000030B100C5
:1015C0000030B0003308320431043004031DE92A2E
:1015D000EA2A032B0030B7000030B6000030B50017
:1015E0000030B4008030B6047F30B7044108B80042
:1015F0003808B7043708B3003608B2003508B10020
:101600003408B0003A2C4808031D072B082B112B77
:101610000030B3000030B2000030B1000030B00044
:101620003A2C4808B800B9013908BB00490838020B
:10163000BA00031CBB033A087F3EC20000303B3DAA
:10164000C3003708C0003608BF003508BE003408A4
:10165000BD000030B7000030B6000030B5000030EB
:10166000B4000030C7000030C6000030C5000030B4
:10167000C400C901792B490803193F2B402B5A2B71
:101680000130BD35BE0DBF0DC00D890B412B0130A2
:10169000B435B50DB60DB70D890B482BC71F512BAF
:1016A000522B532B34140130C435C50DC60DC70D54
:1016B000890B542B33084002031D682B32083F026C
:1016C000031D682B31083E02031D682B30083D02C4
:1016D000031C6B2B6C2B752B47173008BD02310890
:1016E000BE3B3208BF3B3308C03B0130B80038086E
:1016F000C9071A304902031C7E2B7F2B3B2B400865
:101700003F043E043D040319862B872BA02B441471
:10171000A02B0130B435B50DB60DB70D890B8A2B52
:10172000C71F932B942B952B34140130C435C50D52
:10173000C60DC70D890B962BFF30C207FF30C33D86
:10174000B61FA32BA42B892BC901C71FA82BA92B1C
:10175000C52BFF304405B800FF304505B900FF3008
:101760004605BA007F304705BB003B083A04390400
:1017700038040319BC2BBD2BC02BC901C90AC52BCA
:10178000341CC32BC42BC52BBD2B49080319C92BF3
:10179000CA2BF22B0130B4070030B53D0030B63D06
:1017A0000030B73D371CD52BD62BF22B3408B800B0
:1017B0003508B9003608BA003708BB000130BC0054
:1017C000BB37BA0CB90CB80CBC0BE02B3B08B7000C
:1017D0003A08B6003908B5003808B4000130C2072D
:1017E0000030C33D4308803AB80080303802031D02
:1017F000FB2BFF304202031CFE2BFF2B0C2CFF3077
:101800002000C2000030C3000030B7000030B60036
:101810000030B5000030B40020004308803AB80022
:1018200080303802031D162C013042020318192C97
:101830001A2C262C2000C201C3010030B700003052
:10184000B6000030B5000030B400C10120004208ED
:10185000C800481C2C2C2D2C2F2CB617332C7F3075
:10186000B8003808B6054836B7004108B80038084F
:10187000B704FA2A08000130F800983105208C31AD
:10188000AE3142268C31F80015302300A00005301F
:10189000A1000030A300CC30A200A401A5010230B9
:1018A000A7000030A6000030A900FA30A8000030E0
:1018B000AB00FB30AA000030AD00FC30AC000130C2
:1018C000AF00FE30AE000130B100FF30B00002309A
:1018D000B3000030B2000030B500F030B400033087
:1018E000B7001130B60078082000B800B9013808F8
:1018F0002300B800200039082300B900BA01BB0159
:10190000BC01BD01BE01BF01C001C1010330C30064
:10191000EC30C2000330C500ED30C4000330C70016
:10192000EE30C600903198208C31A23146228C31A5
:10193000003A03199C2C9D2CD22CF4302100A000DD
:101940000130A1000030A300C730A2000230A50082
:10195000BC30A4000330A7005230A6000430A90018
:101960001A30A8000030AB009630AA000330B10056
:10197000E830B0000330B300E830B2000330B50007
:10198000E830B4000330B700E830B600B801B90160
:10199000BA01BB01BC01BD01BE01BF01A3312723B8
:1019A0008C31502D0030AE31DC268C317408210092
:1019B000A1007308A0000130AE31DC268C31740820
:1019C0002100A3007308A2000230AE31DC268C3166
:1019D00074082100A5007308A4000330AE31DC2692
:1019E0008C3174082100A7007308A6000430AE31C2
:1019F000DC268C3174082100A9007308A80005308A
:101A0000AE31DC268C3174082100AB007308AA00CB
:101A10000630AE31DC268C3174082100B100730829
:101A2000B0000830AE31DC268C3174082100B300E0
:101A30007308B2000930AE31DC268C317408210005
:101A4000B5007308B4000A30AE31DC268C3174085E
:101A50002100B7007308B6000B30AE31DC268C31A4
:101A600074082100B9007308B8000C30AE31DC26D0
:101A70008C3174082100BB007308BA000D30AE3100
:101A8000DC268C3174082100BD007308BC000E30C8
:101A9000AE31DC268C3174082100BF007308BE0013
:101AA0002100AC01AD01AE01AF0101302200D60032
:101AB0000030D70021002F082200D30021002E087B
:101AC0002200D2000530F3000030F40021002B0882
:101AD000F6002A08F500A33195238C317308210004
:101AE000C90021082200A100210020082200A00036
:101AF0002000B801B9012200200820003802BA00F5
:101B0000220021082000393BBB003A082200A20035
:101B100020003B082200A300210023082200A5008A
:101B2000210022082200A400210025082200A9008B
:101B3000210024082200A800210027082200AD006F
:101B4000210026082200AC00210029082200B10053
:101B5000210028082200B00021003108F4003008DC
:101B6000F3000030AE31E7268C3121003308F40059
:101B70003208F3000130AE31E7268C312100350800
:101B8000F4003408F3000230AE31E7268C31210036
:101B90003708F4003608F3000330AE31E7268C3105
:101BA00021003908F4003808F3000030AE31F22685
:101BB0008C3121003B08F4003A08F3000130AE31CB
:101BC000F2268C3121003D08F4003C08F30002307D
:101BD000AE31F2268C3121003F08F4003E08F300BC
:101BE0000330AE31F2268C31080020002308803902
:101BF000F3002335F500A21FFE2DFF2D002E7514D6
:101C000075080319042E052E152E750A031D092EBD
:101C10000A2E122E0030A3000030A2000030A100D6
:101C20000030A000A217A3011D2E0030A300003039
:101C3000A2000030A1000030A00027088039F40085
:101C4000740873060319252E262E272E73172735A1
:101C5000F400A61F2C2E2D2E2E2E7414740803199A
:101C6000322E332E432E740A031D372E382E402E6B
:101C70000030A7000030A6000030A5000030A4000E
:101C8000A617A7014B2E0030A7000030A600003099
:101C9000A5000030A400750874020318502E512EC0
:101CA000772E731F542E552E592E8030A8002808E9
:101CB000F3067508F6007408F5007608F4002008AD
:101CC000F6002408A0007608A4002108F6002508E4
:101CD000A1007608A5002208F6002608A2007608D2
:101CE000A6002308F6002708A3007608A700F6013F
:101CF0007408A800A9012908AB0075082802AA00E9
:101D0000031CAB032B08803AAC0080302C02031D6F
:101D10008B2E1A302A02031C8E2E8F2EC22E2000EC
:101D20002308220421042004031D972E992E01303C
:101D30009A2E0030F6000030A3000030A2000030E0
:101D4000A1000030A0007408F500C82E761CA92E52
:101D5000AA2EAE2E76360138F600B02E0310F60C01
:101D60002000201CB42EB52EB62EF6170130A80088
:101D7000A337A20CA10CA00CA80BB82E0130A80010
:101D80002808F50774087502031CC72EC82EA62E56
:101D9000731BCB2ECC2E042F7508031DD02ED12EF5
:101DA000DB2E00302000A3000030A2000030A10094
:101DB0000030A000FF2F20002408A0072508A13D27
:101DC0002608A23D2708A33D231CE72EE82E912FCD
:101DD000761CEB2EEC2EF02E76360138F600F22E25
:101DE0000310F60C201CF52EF62EF72EF6170130F8
:101DF000A800A337A20CA10CA00CA80BF92E01304F
:101E0000A8002808F507912F20002308803AA80091
:101E10002708803A2802031D172F26082202031DD7
:101E2000172F25082102031D172F2408200203184D
:101E30001A2F1B2F532FFF30A800FF30A900FF30AF
:101E4000AA00FF30AB0020082402AC002108253B8B
:101E5000AD002208263BAE002308273BAF002C082C
:101E6000A8072D08A93D2E08AA3D2F08AB3D2B0839
:101E7000A3002A08A2002908A1002808A000803099
:101E8000A8002808F306F609F60A7608031D492F6C
:101E90004A2F5B2F0130A0070030A13D0030A23D4A
:101EA0000030A33D5B2F2408A0022508A13B260893
:101EB000A23B2708A33B2308220421042004031D7E
:101EC000622F632F8D2F7608031D672F682F8D2FAC
:101ED0000030A3000030A2000030A1000030A000BC
:101EE000FF2F0130A035A10DA20DA30D890B722F7C
:101EF000F61F7B2F7C2F7D2F2014761C802F812FA7
:101F0000842F0314F60D862F0310F60D75080319A0
:101F10008A2F8B2F8D2F0130F502A21F902F912F2A
:101F2000712FF401F61F952F962FA42F76087F3975
:101F300003199B2F9C2F9F2FF401F40AA42F201C20
:101F4000A22FA32FA42F9C2F74080319A82FA92F09
:101F5000D62F0130A0070030A13D0030A23D003057
:101F6000A33D231CB42FB52FD62F2008A80021088D
:101F7000A9002208AA002308AB000130AC00AB374F
:101F8000AA0CA90CA80CAC0BBF2F2B08A3002A0885
:101F9000A2002908A1002808A000750A0319D12F62
:101FA000D22FD62F0130A8002808F507750A03198B
:101FB000DA2FDB2FE02F7508031DDF2FE02FEE2F28
:101FC0000030A3000030A2000030A1000030A000CB
:101FD0007508031DEC2FED2FEE2FF301751CF12F6B
:101FE000F22FF42FA217F82F7F30A8002808A2059F
:101FF0007536A300F31FFD2FFE2FFF2FA317080038
:102000002200D201D3012100AE01AF010800FF3050
:102010002000A600FF30A700A801A9017030F3003E
:102020002630F40020002808730786002908743D34
:1020300087000108F500F6017508A6067608A706D0
:102040000830A4000030A500261C272828283228A4
:102050000130A736A60C890B29280130A606A0302E
:10206000A70637280130A736A60C890B3328FF3086
:10207000A407FF30A53D24082504031D402841285E
:1020800024280130A8070030A93D2908803AF30030
:1020900080307302031D4E2806302802031C51288D
:1020A00052280E28FF3020002605A000003027050A
:1020B000A1002708F4002608F3007408F300F401D7
:1020C000FF307305A20000307405A3007030F300E8
:1020D0002630F4002808730786002908743D87001D
:1020E0000108F500F60121087606031D792820086D
:1020F0007506031D7C287D2896287130F300263054
:10210000F4002808730786002908743D8700010839
:10211000F500F60123087606031D902822087506AF
:10212000031D932894289628013097280030080032
:102130002000B601B7010030370220300319360203
:10214000031CA328A428A528C1283608E03EA8001F
:102150003F30373DA9002908F4002808F300A031DA
:102160005420903120003635A03E86000330870091
:102170007308C03F7408C13F0130B6070030B73D57
:102180009B28B601B701003037021F300319360211
:10219000031CCB28CC28CD2875293608013EA20087
:1021A0000030373DA30007302205A400003023058E
:1021B000A50024082504031DDE28DF28E9283608A9
:1021C00037040319E428E528E9280130B607003070
:1021D000B73D3708A3003608A200A336A20CA336E9
:1021E000A20CA336A20C3608013EA4000030373DF5
:1021F000A500A536A40CA536A40CA536A40C24086D
:10220000F3002508F4000730F5000030F600A13196
:10221000B4219031200022087307A6002308743DE2
:10222000A7002608073EAA000030273DAB002A354C
:10223000A03E860003308700403FB400413FB50018
:1022400007303605B20000303705B3000030A20079
:10225000C030A300FE30F3003208A03111209031CD
:102260000E3E890A20003629A336A20C890B342998
:102270002208AC002308AD002C083405B4002D085A
:102280003505B5003508A3003408A200FE30F30080
:102290003208A031112090310E3E890A20005229C7
:1022A000A235A30D890B50292208AE002308AF00E8
:1022B0003635A03E860003308700403FA200413FF4
:1022C000A3002E082207B0002F08233DB1003635A9
:1022D000A03E8600023087003008C03F3108C13F71
:1022E0000130B6070030B73DC328080020003A0887
:1022F000043E860003308700403FBB00413FBC00E6
:1023000039083C06031D862938083B06031989292C
:102310008A29712A3A08043E860003308700403F2C
:10232000BB00413FBC003B08A0003C08A100A2014B
:10233000A3013808BD003908BE00BF01C00110303C
:10234000BD35BE0DBF0DC00D890BA0294008A700EB
:102350003F08A6003E08A5003D08A400A53173254E
:10236000913120002308F7002208F6002108F5002B
:102370002008F4000030BB008030BC000030BD00FD
:102380000030BE000030BF000030C0000030C1008F
:102390000030C2003A08860003308700403FC30087
:1023A000413FC400423FC500433FC6004308C70049
:1023B0004408C8004508C9004608CA00CB01CC0142
:1023C000CD01CE014E08A7004D08A6004C08A5007F
:1023D0004B08A4004A08A3004908A2004808A1002D
:1023E0004708A0007408CF007508D0007608D10017
:1023F0007708D200D301D401D501D6015608AF0029
:102400005508AE005408AD005308AC005208AB00AC
:102410005108AA005008A9004F08A800A431D024F0
:10242000913120002030860000308700403FBB07FC
:10243000413FBC3D423FBD3D433FBE3D443FBF3DAC
:10244000453FC03D463FC13D473FC23D1030D700EC
:102450002000C237C10CC00CBF0CBE0CBD0CBC0CA4
:10246000BB0CD70B282A20003A08860003308700CF
:102470003B08C03F3C08C13F3D08C23F3E08C33F48
:102480003A08043E8600033087003808C03F390808
:10249000C13F3A08043E860003308700403FBB003E
:1024A000413FBC003B08A0003C08A100A201A301E1
:1024B0000030A7000130A6000030A5000030A400C5
:1024C000A5317325913120003A08083E860003307B
:1024D00087002008C03F2108C13F2208C23F2308CF
:1024E000C33F080020003A08860003308700403FC1
:1024F000D900413FDA00423FDB00433FDC003808AF
:10250000BB003908BC00BD01BE015908BF005A0814
:10251000C0005B08C1005C08C2003808C30039086D
:10252000C400C501C6014308BF074408C03D4508B3
:10253000C13D4608C23D3E084202031DA92A3D088E
:102540004102031DA92A3C084002031DA92A3B0899
:102550003F02031CAC2AAD2ACC2A5908BB005A08FA
:10256000BC005B08BD005C08BE003808BF0039082D
:10257000C000C101C2013F08BB074008BC3D410883
:10258000BD3D4208BE3D3E08DC003D08DB003C0886
:10259000DA003B08D900D42AFF30DC00FF30DB0032
:1025A000FF30DA00FF30D9000030BB008030BC00C3
:1025B0000030BD000030BE000030BF000030C00061
:1025C0000030C1000030C2005908C3005A08C400DE
:1025D0005B08C5005C08C600C701C801C901CA0183
:1025E0004A08A7004908A6004808A5004708A40013
:1025F0004608A3004508A2004408A1004308A00023
:102600003A08083E860003308700403FCB00413F38
:10261000CC00423FCD00433FCE004B08CF004C08DA
:10262000D0004D08D1004E08D200D301D401D5010D
:10263000D6015608AF005508AE005408AD00530847
:10264000AC005208AB005108AA005008A9004F087E
:10265000A800A431D0249231200020308600003020
:102660008700403FBB07413FBC3D423FBD3D433F2C
:10267000BE3D443FBF3D453FC03D463FC13D473F56
:10268000C23D10302000C236C10CC00CBF0CBE0CC5
:10269000BD0CBC0CBB0C890B422B20003C08D800A5
:1026A0003B08D7005708BB005808BC00BD01BE015D
:1026B0005908BF005A08C0005B08C1005C08C2008E
:1026C0003B08BF023C08C03B3D08C13B3E08C23B43
:1026D00042085C02031D762B41085B02031D762B2A
:1026E00040085A02031D762B3F085902031C792B20
:1026F0007A2B992B5708BB005808BC00BD01BE01BE
:102700005908BF005A08C0005B08C1005C08C2003D
:102710003B08BF023C08C03B3D08C13B3E08C23BF2
:102720004208DC004108DB004008DA003F08D9001D
:10273000A12B0030DC000030DB000030DA0000307C
:10274000D9003A088600033087005908C03F5A086C
:10275000C13F5B08C23F5C08C33F5808B900570837
:10276000B800080021004503031DB72BB82B0F2D1F
:1027700021082200A100210020082200A000200042
:10278000B601B7012200200820003602B80022005E
:1027900021082000373BB90038082200A2002000A1
:1027A00039082200A300210023082200A5002100EF
:1027B00022082200A400210025082200A9002100EF
:1027C00024082200A800210027082200AD002100D3
:1027D00026082200AC00210029082200B1002100B7
:1027E00028082200B0000530F3000030F40021007A
:1027F0002B08F6002A08F500A331952393317308BE
:102800002100C9004908AE31BE2693312100490894
:10281000AE31C826933121004908AE31D22693311A
:1028200001302200D6000030D70021002F082200FE
:10283000D30021002E082200D20021003108F4002C
:102840003008F3000030AE31E72693312100330821
:10285000F4003208F3000130AE31E7269331210055
:102860003508F4003408F3000230AE31E726933126
:1028700021003708F4003608F3000330AE31E726B4
:10288000933121003908F4003808F3000030AE31EC
:10289000F226933121003B08F4003A08F30001309E
:1028A000AE31F226933121003D08F4003C08F300DC
:1028B0000230AE31F226933121003F08F4003E0889
:1028C000F3000330AE31F226933121002B082000B3
:1028D000A30021002A082000A20005309831D02052
:1028E0009331220021082000A300220020082000AC
:1028F000A20000309831D02093312200250820001A
:10290000A300220024082000A20001309831D0202A
:102910009331220029082000A3002200280820006B
:10292000A20002309831D020933122002D082000DF
:10293000A30022002C082000A20003309831D020F0
:102940009331220031082000A3002200300820002B
:10295000A20004309831D0209331210031082000AA
:10296000A300210030082000A20006309831D020BA
:102970009331210033082000A300210032082000F9
:10298000A20008309831D020933121003508200072
:10299000A300210034082000A20009309831D02083
:1029A0009331210037082000A300210036082000C1
:1029B000A2000A309831D02093312100390820003C
:1029C000A300210038082000A2000B309831D0204D
:1029D000933121003B082000A30021003A08200089
:1029E000A2000C309831D020933121003D08200006
:1029F000A30021003C082000A2000D309831D02017
:102A0000933121003F082000A30021003E08200050
:102A1000A2000E309831D02093312100C50108006A
:102A20002000D401D50100304B02353003194A0291
:102A300003181B2D1C2D202D3530CA000030CB0073
:102A400002304B02E43003194A02031C282D292DC1
:102A50002D2DE330CA000230CB000C30860026302A
:102A600087004431403FCC00413FCD004B084D0230
:102A7000031D3C2D4A084C0203183F2D402D452DC7
:102A80000130E8000030E900932D683086002630E0
:102A90008700403FCC00413FCD004D084B02031D55
:102AA000532D4C084A020318562D572D5C2D183013
:102AB000E8000030E900932D0130E8000030E90023
:102AC00020006908CD006808CC00CC35CD0DCC3590
:102AD000CD0D0C30CE002630CF004C084E078600BE
:102AE0004D084F3D8700403FD000413FD1004B088B
:102AF0005102031D7D2D4A0850020318802D812D9F
:102B0000822D932D0130E8070030E93D6908803AB5
:102B1000CC0080304C02031D8F2D18306802031C3E
:102B2000922D932D602D3230F5000030F6002000FC
:102B30006908CD006808CC00CC35CD0DCC35CD0D65
:102B40000C30CE002630CF004C084E0786004D08D2
:102B50004F3D8700403F4A02F300413F4B3BF400AA
:102B6000A131B421953173082000D0007408D10040
:102B7000D201D3015308A5005208A4005108A300B4
:102B80005008A20000309A31882295312000250893
:102B9000D9002408D8002308D7002208D6006908E5
:102BA000CD006808CC00CC35CD0DCC35CD0D0C302A
:102BB000CE002630CF004C084E0786004D084F3D12
:102BC00087006908D1006808D000D035D10DD03514
:102BD000D10D0830D2002630D300500852078400AF
:102BE0005108533D8500403F0002A2000131413FA2
:102BF000003BA300A401A50100309A318822953141
:102C000020002508DD002408DC002308DB00220862
:102C1000DA005D08B3005C08B2005B08B1005A0836
:102C2000B0005908B7005808B6005708B500560854
:102C3000B4008A319122953120003308E700320830
:102C4000E6003108E5003008E4003F30A300003022
:102C5000A2000030A1000030A0006708A7006608AD
:102C6000A6006508A5006408A4008D31F5259531FE
:102C700020002308E7002208E6002108E5002008DC
:102C8000E4006708F6006608F5006508F4006408CB
:102C9000F300A631A926953174082000E3007308DB
:102CA000E2006908CD006808CC00CC35CD0DCC35EC
:102CB000CD0D0E30CE002630CF004C084E078600DA
:102CC0004D084F3D8700403FE000413FE10069086B
:102CD000CD006808CC00CC35CD0DCC35CD0D0E30F7
:102CE000CE002630CF004C084E0786004D084F3DE1
:102CF0008700403FD000413FD10062085002DE0013
:102D00006308513BDF005F08CB005E08CA00080083
:102D10002000D401D50100304B020A3003194A02C9
:102D20000318932E942E982E0A30CA000030CB0040
:102D300002304B02E63003194A02031CA02EA12EDA
:102D4000A52EE530CA000230CB0078308600253051
:102D500087004431403FCC00413FCD004B084D023D
:102D6000031DB42E4A084C020318B72EB82EBD2EF0
:102D70000130E8000030E9000B2F043086002630D7
:102D80008700403FCC00413FCD004D084B02031D62
:102D9000CB2E4C084A020318CE2ECF2ED42E243030
:102DA000E8000030E9000B2F0130E8000030E900B6
:102DB00020006908CD006808CC00CC35CD0DCC359D
:102DC000CD0D7830CE002530CF004C084E07860060
:102DD0004D084F3D8700403FD000413FD1004B0898
:102DE0005102031DF52E4A0850020318F82EF92E41
:102DF000FA2E0B2F0130E8070030E93D6908803AD0
:102E0000CC0080304C02031D072F24306802031CC5
:102E10000A2F0B2FD82E3230F5000030F60020009C
:102E20006908CD006808CC00CC35CD0DCC35CD0D72
:102E30007830CE002530CF004C084E0786004D0874
:102E40004F3D8700403F4A02F300413F4B3BF400B7
:102E5000A131B421963173082000D0007408D1004C
:102E6000D201D3015308A5005208A4005108A300C1
:102E70005008A20000309A3188229631200025089F
:102E8000D9002408D8002308D7002208D6006908F2
:102E9000CD006808CC00CC35CD0DCC35CD0D7830CB
:102EA000CE002530CF004C084E0786004D084F3D20
:102EB00087006908D1006808D000D035D10DD03521
:102EC000D10D7430D2002530D30050085207840051
:102ED0005108533D8500403F0002A2000131413FAF
:102EE000003BA300A401A50100309A31882296314D
:102EF00020002508DD002408DC002308DB00220870
:102F0000DA005D08B3005C08B2005B08B1005A0843
:102F1000B0005908B7005808B6005708B500560861
:102F2000B4008A319122963120003308E70032083C
:102F3000E6003108E5003008E4003F30A30000302F
:102F4000A2000030A1000030A0006708A7006608BA
:102F5000A6006508A5006408A4008D31F52596310A
:102F600020002308E7002208E6002108E5002008E9
:102F7000E4006708F6006608F5006508F4006408D8
:102F8000F300A631A926963174082000E3007308E7
:102F9000E2006908CD006808CC00CC35CD0DCC35F9
:102FA000CD0D7A30CE002530CF004C084E0786007C
:102FB0004D084F3D8700403FE000413FE100690878
:102FC000CD006808CC00CC35CD0DCC35CD0D7A3098
:102FD000CE002530CF004C084E0786004D084F3DEF
:102FE0008700403FD000413FD10062085002DE0020
:102FF0006308513BDF005F08CB005E08CA00080091
:10300000F30073082100C10008002100C301031070
:1030100020000E1E0314003003180130F50075085F
:10302000F3000230F335FF3E031D12287335F40020
:1030300074082100C304031020008E1E0314003006
:1030400003180130F5007508F3000130F335FF3E39
:10305000031D26287335F40074082100C3040310EF
:1030600020000E1F0314003003180130F5007535E1
:10307000F30073082100C304031020008E1F031403
:10308000003003180130F5007508F30073082100C3
:10309000C304080009302000B8000030B9002C300B
:1030A000BA0091317621983114302000B8000030F8
:1030B000B9003830BA0091317621983114302000AF
:1030C000B8000030B9004430BA009131762198310F
:1030D00014302000B8000030B9005030BA009131EF
:1030E0007621983114302000B8000030B9005C30EF
:1030F000BA009131762198312000DA01DB012000FD
:103100005A35D23E8600013087000030C03FC13FB3
:103110005A35483E8600013087000030C03FC13F2D
:103120005A353E3E8600013087000030C03FC13F27
:10313000E830D8000330D9005A35C83E8600013047
:1031400087005808C03F5908C13F5A35343E8600B1
:10315000013087000030C03FC13F0130DA07003046
:10316000DB3D5B08803AD80080305802031DBA2846
:1031700005305A02031CBD28BE287F2802302200D9
:10318000CB000030CA000230CD000030CC0002304D
:10319000CF000030CE000330D1000C30D00008004A
:1031A0002000B5003535203E860004308700220817
:1031B000C03F2308C13F35080739A400A5012408F2
:1031C000B3002508B40000302205A400C030230558
:1031D000A500FE30F3003308A031112098310E3ED7
:1031E000890A2000F528A536A40C890BF3282408A9
:1031F000AB002508AC003508A4000330A436890BC9
:10320000FE282408A500A6013508013EA7000030CD
:1032100003180130A800A836A70CA836A70CA836BA
:10322000A70C2708F3002808F4000730F500003049
:10323000F600A131B4219831200025087307A900B8
:103240002608743DAA002908073EB10000302A3D37
:10325000B2000030A400C030A500FE30F3003308F7
:10326000A031112098310E3E890A20003929A53657
:10327000A40C890B37292409AD002509AE0031358E
:10328000203E860004308700403FA400413FA50057
:103290002D082405AF002E082505B0002B08AF0728
:1032A0002C08B03D3135203E8600043087002F08C1
:1032B000C03F3008C13F0800A231972299318B13DB
:1032C0000B13AE318726993168302000EA00E430D4
:1032D000890B6829EA0B68290000A0316D2099311B
:1032E00098314A2099318C313B2499318B170B1737
:1032F000AE314B269931AF314D27993122008D12D5
:1033000023009E12AE314E2699312100CE004E0888
:10331000CD0022008F126400A7318B2799319D3197
:103320007D259931AE314E2699312100CE004E03D4
:10333000031D9B299C29AF294D08031DA029A12904
:10334000C929CD01CD0A10302000A6000030A70009
:103350000030A800A900AE31FD269931C9294E08D8
:10336000CD00C929A3315D2399318B299C31A92432
:1033700099318B298031E72099318B299331B22300
:1033800099318B299B31332399318B292100CF012E
:103390008B2921004F08CF0A2000EA00EB016B08BF
:1033A000003A0319D429C6296A08003A03198B295F
:1033B000013A0319B229033A0319B629013A03194C
:1033C000BA29073A0319BE29013A0319C229C629A5
:1033D00080314A282000AF01B001AD01AE01AB0140
:1033E000AC01703086002630870043310108B100FF
:1033F00078082400A000113020003102031C012AAB
:10340000022A0B2A86302400A1000230A2000330D9
:103410002000B200632A06302400A100703086002C
:1034200026308700453101082000AD00703086004D
:103430002630870044310108AE002E08A900AA01F9
:103440002908AF002A08B0000830AF35B00D890B4D
:10345000252A2D08A900AA012908AF042A08B004CA
:103460003008F4002F08F30031088831F920993131
:10347000003A031D3C2A3D2A462A86302400A1003A
:103480000330A20003302000B200632A200031354F
:10349000A03E860087012F08C03F3008C13F2400AE
:1034A000A201200031082400A30020002E082400DF
:1034B000A40020002D082400A50006302000B20042
:1034C0002100C501C50A20003208023EA7311A2793
:1034D000993174082000AC007308AB003208203E1C
:1034E0008600023087002C0881000130A9002908DD
:1034F000B2073208203E8600023087002B08810088
:103500000230A9002908B20732082100C7000800CC
:103510002000AA002A0803198E2A8F2AA32AA51F91
:10352000922A932AA32A2209AC002309AD00240978
:10353000AE002509AF00AC0A0319AD0A0319AE0AA3
:103540000319AF0AAB2A2508AF002408AE002308F0
:10355000AD002208AC002508240423042204031D26
:10356000B22AB32ABC2A0030A5000030A4000030E3
:10357000A3000030A200322B9630AB00CA2A0130E3
:10358000A6002608AB070130AF36AE0CAD0CAC0C74
:10359000890BC42AFE302F05031DCF2AD02ABF2A4B
:1035A000E42A0130A6002608AB070130AC07003042
:1035B000AD3D0030AE3D0030AF3D0130AF36AE0C1A
:1035C000AD0CAC0C890BDE2AFF302F05031DE92A58
:1035D000EA2AD12AF42A0130AB020130AC35AD0D14
:1035E000AE0DAF0D890BEE2AAE1BF72AF82AFE2A84
:1035F00002302B020318FD2AFE2AEB2A2B18012B7E
:10360000022B0A2BFF30AC05FF30AD057F30AE0535
:10361000FF30AF050310AB0C2B08A600A701A801D3
:10362000A9011830A635A70DA80DA90D890B122BDD
:103630002608AC042708AD042808AE042908AF0406
:103640002A080319242B252B2A2BA51F282B292BCD
:103650002A2BAF172F08A5002E08A4002D08A300C1
:103660002C08A2000800C22BAE3193269B317303B5
:103670007404031D3C2B3D2BDD2B0130F300003087
:10368000F400AE318D269B312100C001C00ADD2B34
:10369000AE3193269B3173087404031D502B512BBC
:1036A0005C2BAE319F269B310030F300F400AE312D
:1036B0008D269B312100C001AE314E269B31013A4F
:1036C000031D632B642BDD2BAE31A6269B3102300C
:1036D0002100C000DD2BAE314E269B31003A031D88
:1036E000722B732B7E2BAE319F269B310030F30063
:1036F000F400AE318D269B312100C001AE319326FE
:103700009B3173087404031D862B872BDD2BAE3190
:103710009F269B310030F300F400AE318D269B31A3
:103720002100C001DD2BAE314E269B31003A031D36
:103730009A2B9B2BDD2BD0302000AA00C930890B9F
:103740009F2BAA0B9F2B003204302100C000DD2BE1
:103750000D30A6000030A7000030A800A900AE314F
:10376000FD269B3122008F12902BAE319F269B317C
:103770000030F300F400AE318D269B310330210080
:10378000C000DD2B210040082000AA00AB012B085F
:10379000003A0319CC2BB52B2A08003A0319342B15
:1037A000013A0319482B033A03196B2B013A031909
:1037B000932B073A0319A82BB52B08000330A0312F
:1037C000A1209B3174082200CB007308CA0004308A
:1037D000A031A1209B3174082200CD007308CC00D9
:1037E0000230A031A1209B3174082200CF00730861
:1037F000CE000130A031A1209B3174082200D100FD
:103800007308D00001302000A6000030A70020007F
:103810002635D23E860001308700403FA000413F60
:10382000A100A11B142C152C4F2C2635483E8600D8
:10383000013087002635D23E840001308500403FAC
:103840000007A0000131413F003DA10026353E3E6A
:103850008600013087002008C03F2108C13F26357F
:103860003E3E860001308700403FA000413FA1005E
:1038700004302102003003192002031C402C412C8B
:10388000942CFF30A0000330A10026353E3E860078
:10389000013087002008C03F2108C13F942C263505
:1038A000D23E860001308700A001A101403F2002E6
:1038B000A200413F213BA3002208A4002308A50049
:1038C0002635483E860001308700403FA000413F3A
:1038D000A10021082502031D6F2C200824020318D3
:1038E000722C732C8C2C2635483E860001308700C4
:1038F000403FA000413FA10024082002A20025086B
:10390000213BA30026353E3E860001308700220879
:10391000C03F2308C13F942C26353E3E860001302F
:1039200087000030C03FC13F0130A6070030A73DEF
:103930002708803AA00080302002031DA12C05300A
:103940002602031CA42CA52C072C2100CC01CC0A98
:103950000800642D21004603031DAF2CB02CB82CA9
:10396000C601AE3151269C3103302100C4007C2DAC
:10397000A13171219C3123005C0820002002B50098
:1039800023005D082000213BB60023005E082000D4
:10399000223BB70023005F082000233BB800230030
:1039A00060082000243BB900230061082000253B6B
:1039B000BA00230062082000263BBB0023006308F6
:1039C0002000273BBC003C08031DFE2C3B08031DC8
:1039D000FE2C3A08031DFE2C3908031DFE2C380866
:1039E000031DFE2C3708031DFE2C3608031DFE2C7C
:1039F00033303502031CFD2CFE2C242DA131712106
:103A00009C31200020082300DC0020002108230036
:103A1000DD00200022082300DE0020002308230010
:103A2000DF00200024082300E000200025082300F8
:103A3000E100200026082300E200200027082300E0
:103A4000E3009B31DE239C31AE3199269C31730318
:103A50007404031D2C2D2D2D332DAF311E279C31C9
:103A6000903100209C31AE3199269C310230730692
:103A70007404031D3C2D3D2D7C2DAE31AD269C31B3
:103A8000903100209C317C2D083021004806031D18
:103A90004A2D4B2D532DC801A5311C259C310530D5
:103AA0002100C4007C2DC801C4017C2D8731FD2775
:103AB0009C31003A03195D2D5E2D7C2DA43110241C
:103AC0009C312100C4017C2D210044082000B50058
:103AD000B6013608003A03196E2D612D3508003AFB
:103AE0000319AA2C033A0319442D063A0319562D3B
:103AF000033A03197C2D612D08000030AF310827EF
:103B00009D3173082000A0007408A1000130AF317E
:103B100013279D3120002108803AA2007408803AC2
:103B20002202031D952D73082002031C982D9A2D47
:103B300001309B2D00302000A3000030AF3113274F
:103B40009D3173082000A4007408A5000030AF3137
:103B500008279D3120002508803AA6007408803A85
:103B60002602031DB52D73082402031CB82DBA2D9F
:103B70000130BB2D00302000230400380319C12D73
:103B8000C22DC62D0030AF31A1279D310430AF3199
:103B900013279D3173082000A0007408A100013094
:103BA000AF3108279D3120002108803AA200740817
:103BB000803A2202031DDE2D730820020318E12D36
:103BC000E22DE82D0230AF31A1279D3122008F1662
:103BD0000630AF3113279D3173082000A000740810
:103BE000A1000230AF3108279D3120002108803A22
:103BF000A2007408803A2202031D002E73082002DE
:103C00000318032E042E0A2E0330AF31A1279D3155
:103C100022008F160830AF3113279D317308200022
:103C2000A0007408A1000330AF3108279D312000A7
:103C30002108803AA2007408803A2202031D222E35
:103C4000730820020318252E262E2C2E0430AF31A7
:103C5000A1279D3122008F160430AF3108279D31F6
:103C600073082000A0007408A1000230AF311327B0
:103C70009D3120002108803AA2007408803A220277
:103C8000031D442E730820020318472E482E4D2E84
:103C90000130A03100209D31512E0130AF31D927A4
:103CA0009D3108002000AE01AC01AD01B001B101B1
:103CB0000330B2007030860026308700433101089F
:103CC000AF00703086002630870045310108AE0015
:103CD00078082400A000153020002F020318712E50
:103CE000722EFB2E0030AA002F08143CA900031CE2
:103CF000AA032A08803AAB0080302B02031D822ED3
:103D00002E082902031C852E862EFB2E043024004B
:103D1000A10020002E352400A20020002F08A900B9
:103D2000AA012908B0002A08B100EB2E3035A03EC8
:103D3000860001308700403FA900413FAA000130C2
:103D40002A02003003192902031CA72EA82ECD2E0B
:103D50003208203E8600023087003035A03E8400C5
:103D600001308500003FA900013FAA002A08810018
:103D70000130A9002908B2073208203E860002302F
:103D800087003035A03E84000130850000088100A6
:103D90000130A9002908B207E72E3208203E86002C
:103DA0000230870081010130A9002908B2073208DA
:103DB000203E8600023087003035A03E840001306E
:103DC0008500000881000130A9002908B2070130F0
:103DD000B0070030B13D2F082E07A900AA01AA0D97
:103DE0002A083102031DF62E29083002031CF92E81
:103DF000FA2E962E032F84302400A1000230A20058
:103E000003302000B2003208023EA7311A279E314B
:103E100074082000AD007308AC003208203E860014
:103E2000023087002D0881000130A9002908B2075F
:103E30003208203E8600023087002C0881000230C4
:103E4000A9002908B20732082100C7000800200095
:103E5000AE01AC01AD01B001B1010330B200703070
:103E600086002630870043310108AF00703086009D
:103E70002630870045310108AE0078082400A000F4
:103E8000113020002F020318462F472FD42F003067
:103E9000AA002F08103CA900031CAA032A08803A94
:103EA000AB0080302B02031D572F2E082902031C64
:103EB0005A2F5B2FD42F03302400A10020002E3571
:103EC0002400A200220055082100AD002200540861
:103ED0002100AC0020002F08A900AA012908B00089
:103EE0002A08B100C42F3035A03E86008701403F2C
:103EF000A900413FAA0001302A020030031929021B
:103F0000031C832F842FA72F3208203E8600023007
:103F100087003035A03E84008501003FA900013FA5
:103F2000AA002A0881000130A9002908B207320836
:103F3000203E8600023087003035A03E8400850197
:103F4000000881000130A9002908B207C02F3208FB
:103F5000203E86000230870081010130A900290837
:103F6000B2073208203E8600023087003035A03E7E
:103F700084008501000881000130A9002908B207EA
:103F80000130B0070030B13D2F082E07A900AA016B
:103F9000AA0D2A083102031DCF2F29083002031C65
:103FA000D22FD32F732FDC2F83302400A1000230B7
:103FB000A20003302000B2003208023EA7311A27C7
:103FC0009F3174082000AD007308AC003208203E19
:103FD0008600023087002D0881000130A9002908E1
:103FE000B2073208203E8600023087002C0881008C
:103FF0000230A9002908B20732082100C7000800D2
:10400000F5000130F3000030F400750A0928F3359B
:10401000F40D890B072873082300BA047408BB0445
:104020000800F600F501761C162817281B287308CF
:10403000F4007408F5070310F30D0310F60C76086E
:10404000031D2328242813287508080020001110B8
:1040500022005F08F1005E08F000AF315B27A0315D
:1040600022005C085D040319362837283C285D08C7
:104070008A005C080A00A031080020001412220007
:104080005B08F1005A08F000AF316C27A031220024
:104090005808590403194D284E28532859088A00F6
:1040A00058080A00A031080000308B1B0130F500D1
:1040B0008B137308230091007408920015131514D4
:1040C00000000000750C031C8B1303188B172300D2
:1040D0001408F4001308F300080023000E12210056
:1040E0000E1624000E1623008E1221008E162400B8
:1040F0008E1623000E1321000E1724000E17230026
:104100008E1321008E1724008E17080020009B01BB
:10411000E0309900C0309800111019082200DF002B
:10412000200018082200DE00210011143530F300B1
:104130002E30F400AE315D26A031013020009A000F
:104140000800F6007608F500F50DF50D29001008B9
:10415000750603397506900010140D30890BAE28D2
:104160000000290090149018B628B728B3280F082B
:10417000F4000E08F300080000308B1B0130F5003E
:104180008B13730823009100740892001513151601
:10419000151555309600AA309600951400000000C1
:1041A00023001511750C031C8B1303188B170800C3
:1041B00028009201FC309000E0308F0020001412A3
:1041C000280010082200DB0028000F082200DA0077
:1041D000210014160030F3000830F400AE318126BF
:1041E000A031013028009100080001302400CD07E3
:1041F0000030CE3DCF3DD03DD13DD23DD33DD43D2D
:1042000021005D0A0319052906290A290130F00059
:104210007008DD075C0A03190E290F2913290130E4
:10422000F0007008DC0708002D009301C0309400F6
:1042300001309500960197019801013099009A018B
:104240009B019C01E8309D0020309E009F011E30A4
:1042500091001E3092008F01033090008D018E017D
:104260008C30930008002E009301C0309400013080
:104270009500960197019801013099009A019B01E0
:104280009C01E8309D0020309E009F011E3091006F
:104290001E3092008F01033090008D018E018C3012
:1042A0009300080030009301C03094000130950065
:1042B000960197019801013099009A019B019C0198
:1042C000E8309D0020309E009F011E3091001E307E
:1042D00092008F01033090008D018E018C3093008D
:1042E000080024004D082000A00024004E082000F3
:1042F000A10024004F082000A20024005008200044
:10430000A300240051082000A4002400520820002B
:10431000A500240053082000A60024005408200013
:10432000A70008003230210051020318982999296A
:10433000B2295208A03E86000430870001082300FD
:104340009A000130F00070082100D207323052028A
:10435000031CAB29AC29AD29D2010130F000700853
:10436000D107B329111208002000A001A101731C7C
:10437000BA29BB29C02975082000A0077608A13DED
:104380000130F535F60D890BC1290130F436F30CF7
:10439000890BC62973087404031DCF29D029B729B6
:1043A00020002108F4002008F30008002000A400E9
:1043B000A001A1017308F500F6017508A2007608B6
:1043C000A300241CE429E529E9292208A0072308E1
:1043D000A13D0130A235A30D890BEA290310A40CDD
:1043E0002408031DF429F529E1292108F4002008F7
:1043F000F30008007A08703EF100F2012730F23D28
:1044000071088600720887002300190881000130B6
:10441000F1007108FA0780307A02031C102A112A71
:10442000122AFA010130F10071082100D007AE31E3
:104430003626A1310130AE315826A1310800F400F2
:10444000210051080319252A262A202A111A292A6F
:104450002A2A2E2A740823009A00432A111253088C
:10446000A03E860004308700740881000130F3000C
:104470007308D30732305302031C3F2A402A412AD3
:10448000D3010130D102210011160800F501F50A0F
:10449000F601F7017635A03E86000330870016004E
:1044A000FF3AF30016003F3AF3040319582A592A39
:1044B0005B2A00306D2A0130F6070030F73D77089F
:1044C000803AF30080307302031D682A20307602A0
:1044D000031C6B2A6C2A4A2A750808002100500820
:1044E0000319732A742A6E2A7908F03E8600870120
:1044F0002630873D01082200EE007908703E8600D4
:1045000087012730873D0108F4000130F30073086C
:10451000F90780307902031C8E2A8F2A902AF9012C
:10452000210091120130D002911674080800A531C3
:10453000CE25A231AF312927A231AE315426A23186
:10454000A1315221A231A1311421A231AF31C627AC
:10455000A231AF31B327A231AF318F27A231AE31B3
:10456000B526A231AF31EC27A231A1313321A231DE
:10457000A031D820A231A0318620A231A331D2238C
:10458000A23108007A08F03E860087012630873D78
:10459000810123001D1DCD2ACE2AD52A7A08F03E9E
:1045A000860087012630873D81149D1CD82AD92A90
:1045B000E02A7A08F03E860087012630873D011503
:1045C0007A08F03E860087012630873D01080319EE
:1045D000EA2AEB2AEF2AAF317D27A231F22AA13154
:1045E000FA21A23108000030F6000030F50000305A
:1045F000F4000030F3002000201CFF2A002B082BC1
:104600002408F3072508F43D2608F53D2708F63D64
:104610000130A435A50DA60DA70D890B092B01307E
:10462000A336A20CA10CA00C890B102B230822048A
:1046300021042004031D1D2B1E2BFB2A7608A3003A
:104640007508A2007408A1007308A0000800F430E7
:104650002500A0000130A100C730A2000030A30057
:10466000BC30A4000230A5005230A6000330A700E1
:104670001A30A8000430A9009630AA000030AB0020
:10468000E830AC000330AD00AE01AF01E830B0005F
:104690000330B100E830B2000330B300E830B400BA
:1046A0000330B500B601B701B801B901BA01BB01C9
:1046B000BC01BD01BE01BF010800AE313C26A331E3
:1046C000F50002307502031C662B672B942BAE316C
:1046D0003926A331013A031D6E2B6F2B942B00302A
:1046E00098310020A331892BA2316E22A331F5002D
:1046F00021004808703EF600F7012630F73D7608A5
:10470000860077088700750881000130F50075087C
:10471000C807AE313F26A331003A031D902B912BE1
:10472000742B2100C601C60A08002000A101A201C5
:104730007308740403199D2B9E2BCD2BA001A00A96
:10474000AA2B0130F335F40D890BA22B0130F700B1
:104750007708A007F41FAD2BAE2BA12B0130A1359C
:10476000A20D890BAF2B74087602031DB92B7308B9
:104770007502031CBC2BBD2BC22B7308F5027408F9
:10478000F63B21140130F436F30C890BC32B0130B6
:10479000A002031DCC2BCD2BAE2B2208F400210848
:1047A000F300080021009112C230F3002230F4001F
:1047B000AE317526A331210011129230F300213061
:1047C000F400AE317B26A33123009F011F129F15F9
:1047D00090309D0024309E0044309B009C010030AE
:1047E000F3000030F400AE316926A3310030F3004D
:1047F0000030F400AE316F26A3317D30F3002F304E
:10480000F400AE316326A3312200EE012100D30172
:10481000D2013230D100FA01F901D001911608001D
:10482000210047080319152C162C4F2C22008D1639
:1048300023009E162000A001A1012D2C200020089D
:10484000203E8600023087000108A2311F22A431D9
:1048500001302000A0070030A13D21004708FF3EA5
:10486000F500FF3003180030F60020002108803AE0
:10487000F7007608803A7702031D402C7508200265
:10488000031C432C442C1E2C23009E1C482C492C1A
:10489000442C22008D1223009E122100C701080023
:1048A0000034003401340034023400340334003462
:1048B0000434003405340034063400340734003442
:1048C00008340034093400340A3400340B34003422
:1048D0000C3400340D3400340E3400340F34003402
:1048E00010340034113400341234003413340034E2
:1048F00014340034153400341634003417340034C2
:1049000018340034193400341A3400341B340034A1
:104910001C3400341D3400341E3400341F34003481
:10492000DC34FE34DC34FE34DC34FE34DC34FE347F
:10493000DC34FE34DC34FE34DC34FE34DC34FE346F
:1049400028340034293400342A3400342B34003421
:104950002C3400342D3400342E3400342F34003401
:1049600030340034313400343234003433340034E1
:1049700034340034353400343634003437340034C1
:1049800038340034393400343A3400343B340034A1
:104990003C3400343D3400343E3400343F34003481
:1049A00030308600003087000830F30000301E00F1
:1049B000F30BD72C2000201CDE2CDF2CEF2C28083A
:1049C000B0072908B13D2A08B23D2B08B33D2C0899
:1049D000B43D2D08B53D2E08B63D2F08B73DA8358E
:1049E000A90DAA0DAB0DAC0DAD0DAE0DAF0DA736DB
:1049F000A60CA50CA40CA30CA20CA10CA00C2008C6
:104A00002104220423042404250426042704031D6E
:104A10000A2D0B2DDA2C3008A0003108A100320835
:104A2000A2003308A3003408A4003508A500360806
:104A3000A6003708A70008007030860026308700DF
:104A400001087806031D252D262D722D9031072093
:104A5000A531003A031D2D2D2E2D592D722D9F317C
:104A60002727A531722D98310520A531AE31422678
:104A7000A5312000B300B40133082300B8002000A2
:104A800034082300B9009E315226A531722D993188
:104A9000EA21A531722D78082400A000703086002C
:104AA00026308700413101088038A100A201A20A06
:104AB000722D7030860026308700413101082000B9
:104AC000B300B4013408003A0319672D4B2D3308A5
:104AD000033A03192F2D073A0319332D023A03190C
:104AE000472D4B2D080000302000AB000030AA00FD
:104AF0000030A9000030A80023082204210420046B
:104B00000319832D842DC52DAC01AC0A922D0130E3
:104B1000A035A10DA20DA30D890B882D0130F30046
:104B20007308AC07A31F952D962D872D0130A8354E
:104B3000A90DAA0DAB0D890B972D23082702031D84
:104B4000AB2D22082602031DAB2D21082502031DD3
:104B5000AB2D20082402031CAE2DAF2DB82D20084C
:104B6000A4022108A53B2208A63B2308A73B281442
:104B70000130A336A20CA10CA00C890BB92D013079
:104B8000AC02031DC42DC52D962D2B08A3002A08A9
:104B9000A2002908A1002808A00008002200900116
:104BA0008F018C0180308D008E0121009001FE303C
:104BB0008C0040308D00FC308E00DF308F004030A4
:104BC00023008F008E0129308D0090012E308C0043
:104BD000F03024008F0090018D018C01F0308E00A8
:104BE00021009713250090018C018D018E018F010A
:104BF000FF3026008C00F7308D00FF308E00F9303A
:104C00008F00073090003F3027008C00F0308D007F
:104C1000FF308E00F9308F0002303D00A0000E30D2
:104C20003C00BD0024303D009F001A303C009F0036
:104C30001C30B80001303D00A1000E30B0000D3036
:104C40009C0019303C009E0006303D009900123057
:104C50003C00B50005303D00980009309A000A304C
:104C60009B001B303C00B7000430B60018309D009C
:104C70000800E03020002005A6003F302105A700F5
:104C800000308B1B0130A80027082106031D4A2E87
:104C90002608200603194D2E4E2E502EFF30A82E2A
:104CA0008B132108F4002008F300A031BC20A631AA
:104CB00023001513151595162000A90120082300BF
:104CC00091002000210823009200200029352207AE
:104CD000A300230886000430870001082300930006
:104CE000200029352207A30023088600043087000E
:104CF000403FA400413FA5002508230094001F3039
:104D000020002906031D852E862E882E230095124D
:104D1000553023009600AA3096009514000000003C
:104D200001302000A0070030A13D0130A30023087E
:104D3000A90720302902031C9E2E9F2E5E2E2300E1
:104D400015112000280C031C8B1303188B1700303F
:104D500008000310750D760D2000A5002508031D21
:104D6000B22EB32EBC2E0030F6000030F50000301D
:104D7000F4000030F300192F7308A0007408A1009C
:104D80007508A2007608A3001F30A336A20CA10C60
:104D9000A00C890BC52E2008A400F517FF30F305E1
:104DA000FF30F405FF30F5050030F6059630A5021A
:104DB000A51FDB2EDC2EF42E2508803A973E031823
:104DC000E22EE32EE42EB32E0130F636F50CF40C71
:104DD000F30C890BE52E0130A0002008A507031D68
:104DE000F22EF32EE42E092F20302502031CF92E7B
:104DF000FA2E042FB32E0130F335F40DF50DF60D18
:104E0000890BFC2E0130A5022508031D082F092F50
:104E1000FB2E240803190D2F0E2F192FF309F40967
:104E2000F509F609F30A0319F40A0319F50A031937
:104E3000F60A08002000A000FF30A700FF30A800FD
:104E4000A101A201A501512F20002508203E8600C6
:104E5000023087000108F500F6017508A7067608FC
:104E6000A8060830A600271C362F372F412F013007
:104E7000A836A70C890B382F0130A706A030A8064A
:104E8000462F0130A836A70C890B422F0130A6020D
:104E90002608031D4C2F4D2F332F0130F5007508C8
:104EA000A5072008FE3EF500FF3003180030F6008D
:104EB0007608803A803C031D5F2F75082502031C8D
:104EC000622F632F242FFF3020002705F5000030CC
:104ED0002805F6007508F600F5017508A3007608A8
:104EE000A4002808F6002708F5007608F500F6016A
:104EF000FF307505A10000307605A2002108A3044B
:104F00002208A4042408A8002308A7002808F40005
:104F10002708F3000800A1317121A731230064089C
:104F200020002002A800230065082000213BA900E2
:104F3000230066082000223BAA0023006708200007
:104F4000233BAB00230068082000243BAC00230077
:104F500069082000253BAD0023006A082000263B9D
:104F6000AE0023006B082000273BAF002F08031D75
:104F7000D02F2E08031DD02F2D08031DD02F2C0855
:104F8000031DD02F2B08031DD02F2A08031DD02F5F
:104F9000F53028020130293B031CCF2FD02FFF2FE3
:104FA00003102200101D03140318D72FDA2F22003C
:104FB0001015DC2F22001011A1317121A731200022
:104FC00020082300E400200021082300E500200041
:104FD00022082300E600200023082300E700200029
:104FE00024082300E800200025082300E900200011
:104FF00026082300EA00200027082300EB00080011
:105C6A0008002100DD010800210041080800210088
:105C7A005D080800210050080800210043080800B8
:105C8A0020001A1408002800111408002100191411
:105C9A0008002100420808002100DC0108000A303F
:105CAA00210099000800F00070082100C1000800D6
:105CBA0074082200DD007308DC0008007408230061
:105CCA00ED007308EC00080074082200E300730872
:105CDA00E200080074082200E1007308E0000800EE
:105CEA0074082200E5007308E40008007408220022
:105CFA00E7007308E600080074082200D900730858
:105D0A00D8000800FE30F300730821009905080046
:105D1A0074082200D5007308D4000800220057082E
:105D2A00F4005608F300080022005308F400520851
:105D3A00F30008002D009D172E009D1730009D17B7
:105D4A0008002D009D132E009D1330009D1308009E
:105D5A00E030F3003F30F400A031BC20AE3108003F
:105D6A00E0302900910092018E018F0101309000EC
:105D7A000800F3002D009301730891007308920044
:105D8A008C3093000800F3002E00930173089100F1
:105D9A00730892008C3093000800F30030009301DE
:105DAA0073089100730892008C3093000800F50084
:105DBA007535A03E860002308700403FF300413F20
:105DCA00F4000800F5007535C83E860001308700EA
:105DDA007308C03F7408C13F0800F5007535D23E0C
:105DEA008600013087007308C03F7408C13F08006D
:105DFA0020002635A03E8600013087002808C03FD3
:105E0A002908C13F0800F5007535343E8600013087
:105E1A008700403FF300413FF4000800F500753564
:105E2A00203E860001308700403FF300413FF400E6
:105E3A000800E0302000A0003F30A1002030A2007E
:105E4A00A6313926AF310800703021009B0080301E
:105E5A009C009A019D011C1F332F342F302F0800FC
:105E6A006400800101310130FE020030FF3B7F08EF
:105E7A007E04031D362F0034FE0012001E0001307E
:105E8A00FE020030FF3B7F087E04031D422F0034D0
:105E9A00F530F3002030F400AE315D26AF31AE317B
:105EAA004526AF31AE314826AF31080020001A1D11
:105EBA005F2F602F672F1A107108990070089800D9
:105ECA001A146B2F710899007008980008002800AE
:105EDA00111D702F712F782F111071089000700802
:105EEA008F0011147C2F7108900070088F00080031
:105EFA007A08F03E860087012630873D81147A08A9
:105F0A00F03E860087012630873D011523001D12C9
:105F1A001D1608003E00AF010630B000B101B20103
:105F2A00B3010230B4000230B5000230B6000230CC
:105F3A00B7008230AE000800F600AE319F26AF31BE
:105F4A007608A0310020AF310030F300F400AE3102
:105F5A008D26AF3103302100C00008003E009101B8
:105F6A0092010330930094010330950002309600A9
:105F7A00023097000830980008309900803090006D
:105F8A00080080303E009B0006309C009D019E0167
:105F9A009F010230A0000230A1000230A2000230AC
:105FAA00A30082309A000800F5000130F3000030A7
:105FBA00F400750AE22FF335F40D890BE02FF3098B
:105FCA00F40973082300BA057408BB0508000C30ED
:105FDA003E00A5000130A6000230A700A801A901D1
:105FEA000230AA000230AB000830AC000830AD0025
:065FFA008230A400080043
:020000040001F9
:08000000FF3FFF3FFF3FFF3F00
:04000E00EA3FFF1FA7
:00000001FF
